{
  "abi": [
    {
      "type": "constructor",
      "inputs": [],
      "stateMutability": "nonpayable"
    },
    {
      "type": "function",
      "name": "ADMIN_ROLE",
      "inputs": [],
      "outputs": [
        {
          "name": "",
          "type": "bytes32",
          "internalType": "bytes32"
        }
      ],
      "stateMutability": "view"
    },
    {
      "type": "function",
      "name": "DEFAULT_ADMIN_ROLE",
      "inputs": [],
      "outputs": [
        {
          "name": "",
          "type": "bytes32",
          "internalType": "bytes32"
        }
      ],
      "stateMutability": "view"
    },
    {
      "type": "function",
      "name": "DISTRIBUTOR_ROLE",
      "inputs": [],
      "outputs": [
        {
          "name": "",
          "type": "bytes32",
          "internalType": "bytes32"
        }
      ],
      "stateMutability": "view"
    },
    {
      "type": "function",
      "name": "MANUFACTURER_ROLE",
      "inputs": [],
      "outputs": [
        {
          "name": "",
          "type": "bytes32",
          "internalType": "bytes32"
        }
      ],
      "stateMutability": "view"
    },
    {
      "type": "function",
      "name": "RETAILER_ROLE",
      "inputs": [],
      "outputs": [
        {
          "name": "",
          "type": "bytes32",
          "internalType": "bytes32"
        }
      ],
      "stateMutability": "view"
    },
    {
      "type": "function",
      "name": "approve",
      "inputs": [
        {
          "name": "to",
          "type": "address",
          "internalType": "address"
        },
        {
          "name": "tokenId",
          "type": "uint256",
          "internalType": "uint256"
        }
      ],
      "outputs": [],
      "stateMutability": "nonpayable"
    },
    {
      "type": "function",
      "name": "assignDistributer",
      "inputs": [
        {
          "name": "account",
          "type": "address",
          "internalType": "address"
        }
      ],
      "outputs": [],
      "stateMutability": "nonpayable"
    },
    {
      "type": "function",
      "name": "assignManufacturer",
      "inputs": [
        {
          "name": "account",
          "type": "address",
          "internalType": "address"
        }
      ],
      "outputs": [],
      "stateMutability": "nonpayable"
    },
    {
      "type": "function",
      "name": "assignRetailer",
      "inputs": [
        {
          "name": "account",
          "type": "address",
          "internalType": "address"
        }
      ],
      "outputs": [],
      "stateMutability": "nonpayable"
    },
    {
      "type": "function",
      "name": "balanceOf",
      "inputs": [
        {
          "name": "owner",
          "type": "address",
          "internalType": "address"
        }
      ],
      "outputs": [
        {
          "name": "",
          "type": "uint256",
          "internalType": "uint256"
        }
      ],
      "stateMutability": "view"
    },
    {
      "type": "function",
      "name": "createProduct",
      "inputs": [
        {
          "name": "name",
          "type": "string",
          "internalType": "string"
        },
        {
          "name": "quantity",
          "type": "uint256",
          "internalType": "uint256"
        },
        {
          "name": "price",
          "type": "uint256",
          "internalType": "uint256"
        },
        {
          "name": "ipfsHash",
          "type": "string",
          "internalType": "string"
        }
      ],
      "outputs": [],
      "stateMutability": "nonpayable"
    },
    {
      "type": "function",
      "name": "getApproved",
      "inputs": [
        {
          "name": "tokenId",
          "type": "uint256",
          "internalType": "uint256"
        }
      ],
      "outputs": [
        {
          "name": "",
          "type": "address",
          "internalType": "address"
        }
      ],
      "stateMutability": "view"
    },
    {
      "type": "function",
      "name": "getProduct",
      "inputs": [
        {
          "name": "productId",
          "type": "uint256",
          "internalType": "uint256"
        }
      ],
      "outputs": [
        {
          "name": "id",
          "type": "uint256",
          "internalType": "uint256"
        },
        {
          "name": "name",
          "type": "string",
          "internalType": "string"
        },
        {
          "name": "quantity",
          "type": "uint256",
          "internalType": "uint256"
        },
        {
          "name": "price",
          "type": "uint256",
          "internalType": "uint256"
        },
        {
          "name": "currentOwner",
          "type": "address",
          "internalType": "address"
        },
        {
          "name": "ownershipHistory",
          "type": "address[]",
          "internalType": "address[]"
        },
        {
          "name": "locationHistory",
          "type": "string[]",
          "internalType": "string[]"
        },
        {
          "name": "createdAt",
          "type": "uint256",
          "internalType": "uint256"
        },
        {
          "name": "isActive",
          "type": "bool",
          "internalType": "bool"
        },
        {
          "name": "ipfsHistory",
          "type": "string[]",
          "internalType": "string[]"
        }
      ],
      "stateMutability": "view"
    },
    {
      "type": "function",
      "name": "getRoleAdmin",
      "inputs": [
        {
          "name": "role",
          "type": "bytes32",
          "internalType": "bytes32"
        }
      ],
      "outputs": [
        {
          "name": "",
          "type": "bytes32",
          "internalType": "bytes32"
        }
      ],
      "stateMutability": "view"
    },
    {
      "type": "function",
      "name": "grantRole",
      "inputs": [
        {
          "name": "role",
          "type": "bytes32",
          "internalType": "bytes32"
        },
        {
          "name": "account",
          "type": "address",
          "internalType": "address"
        }
      ],
      "outputs": [],
      "stateMutability": "nonpayable"
    },
    {
      "type": "function",
      "name": "hasRole",
      "inputs": [
        {
          "name": "role",
          "type": "bytes32",
          "internalType": "bytes32"
        },
        {
          "name": "account",
          "type": "address",
          "internalType": "address"
        }
      ],
      "outputs": [
        {
          "name": "",
          "type": "bool",
          "internalType": "bool"
        }
      ],
      "stateMutability": "view"
    },
    {
      "type": "function",
      "name": "initialIpfsHash",
      "inputs": [
        {
          "name": "",
          "type": "uint256",
          "internalType": "uint256"
        }
      ],
      "outputs": [
        {
          "name": "",
          "type": "string",
          "internalType": "string"
        }
      ],
      "stateMutability": "view"
    },
    {
      "type": "function",
      "name": "initialLocation",
      "inputs": [
        {
          "name": "",
          "type": "uint256",
          "internalType": "uint256"
        }
      ],
      "outputs": [
        {
          "name": "",
          "type": "string",
          "internalType": "string"
        }
      ],
      "stateMutability": "view"
    },
    {
      "type": "function",
      "name": "initialOwnership",
      "inputs": [
        {
          "name": "",
          "type": "uint256",
          "internalType": "uint256"
        }
      ],
      "outputs": [
        {
          "name": "",
          "type": "address",
          "internalType": "address"
        }
      ],
      "stateMutability": "view"
    },
    {
      "type": "function",
      "name": "isApprovedForAll",
      "inputs": [
        {
          "name": "owner",
          "type": "address",
          "internalType": "address"
        },
        {
          "name": "operator",
          "type": "address",
          "internalType": "address"
        }
      ],
      "outputs": [
        {
          "name": "",
          "type": "bool",
          "internalType": "bool"
        }
      ],
      "stateMutability": "view"
    },
    {
      "type": "function",
      "name": "name",
      "inputs": [],
      "outputs": [
        {
          "name": "",
          "type": "string",
          "internalType": "string"
        }
      ],
      "stateMutability": "view"
    },
    {
      "type": "function",
      "name": "nextProductId",
      "inputs": [],
      "outputs": [
        {
          "name": "",
          "type": "uint256",
          "internalType": "uint256"
        }
      ],
      "stateMutability": "view"
    },
    {
      "type": "function",
      "name": "owner",
      "inputs": [],
      "outputs": [
        {
          "name": "",
          "type": "address",
          "internalType": "address"
        }
      ],
      "stateMutability": "view"
    },
    {
      "type": "function",
      "name": "ownerOf",
      "inputs": [
        {
          "name": "tokenId",
          "type": "uint256",
          "internalType": "uint256"
        }
      ],
      "outputs": [
        {
          "name": "",
          "type": "address",
          "internalType": "address"
        }
      ],
      "stateMutability": "view"
    },
    {
      "type": "function",
      "name": "productIdToProduct",
      "inputs": [
        {
          "name": "",
          "type": "uint256",
          "internalType": "uint256"
        }
      ],
      "outputs": [
        {
          "name": "productId",
          "type": "uint256",
          "internalType": "uint256"
        },
        {
          "name": "name",
          "type": "string",
          "internalType": "string"
        },
        {
          "name": "quantity",
          "type": "uint256",
          "internalType": "uint256"
        },
        {
          "name": "price",
          "type": "uint256",
          "internalType": "uint256"
        },
        {
          "name": "currentOwner",
          "type": "address",
          "internalType": "address"
        },
        {
          "name": "createdAt",
          "type": "uint256",
          "internalType": "uint256"
        },
        {
          "name": "isActive",
          "type": "bool",
          "internalType": "bool"
        }
      ],
      "stateMutability": "view"
    },
    {
      "type": "function",
      "name": "renounceRole",
      "inputs": [
        {
          "name": "role",
          "type": "bytes32",
          "internalType": "bytes32"
        },
        {
          "name": "callerConfirmation",
          "type": "address",
          "internalType": "address"
        }
      ],
      "outputs": [],
      "stateMutability": "nonpayable"
    },
    {
      "type": "function",
      "name": "revokeRole",
      "inputs": [
        {
          "name": "role",
          "type": "bytes32",
          "internalType": "bytes32"
        },
        {
          "name": "account",
          "type": "address",
          "internalType": "address"
        }
      ],
      "outputs": [],
      "stateMutability": "nonpayable"
    },
    {
      "type": "function",
      "name": "safeTransferFrom",
      "inputs": [
        {
          "name": "from",
          "type": "address",
          "internalType": "address"
        },
        {
          "name": "to",
          "type": "address",
          "internalType": "address"
        },
        {
          "name": "tokenId",
          "type": "uint256",
          "internalType": "uint256"
        }
      ],
      "outputs": [],
      "stateMutability": "nonpayable"
    },
    {
      "type": "function",
      "name": "safeTransferFrom",
      "inputs": [
        {
          "name": "from",
          "type": "address",
          "internalType": "address"
        },
        {
          "name": "to",
          "type": "address",
          "internalType": "address"
        },
        {
          "name": "tokenId",
          "type": "uint256",
          "internalType": "uint256"
        },
        {
          "name": "data",
          "type": "bytes",
          "internalType": "bytes"
        }
      ],
      "outputs": [],
      "stateMutability": "nonpayable"
    },
    {
      "type": "function",
      "name": "setApprovalForAll",
      "inputs": [
        {
          "name": "operator",
          "type": "address",
          "internalType": "address"
        },
        {
          "name": "approved",
          "type": "bool",
          "internalType": "bool"
        }
      ],
      "outputs": [],
      "stateMutability": "nonpayable"
    },
    {
      "type": "function",
      "name": "supportsInterface",
      "inputs": [
        {
          "name": "interfaceId",
          "type": "bytes4",
          "internalType": "bytes4"
        }
      ],
      "outputs": [
        {
          "name": "",
          "type": "bool",
          "internalType": "bool"
        }
      ],
      "stateMutability": "view"
    },
    {
      "type": "function",
      "name": "symbol",
      "inputs": [],
      "outputs": [
        {
          "name": "",
          "type": "string",
          "internalType": "string"
        }
      ],
      "stateMutability": "view"
    },
    {
      "type": "function",
      "name": "tokenURI",
      "inputs": [
        {
          "name": "tokenId",
          "type": "uint256",
          "internalType": "uint256"
        }
      ],
      "outputs": [
        {
          "name": "",
          "type": "string",
          "internalType": "string"
        }
      ],
      "stateMutability": "view"
    },
    {
      "type": "function",
      "name": "transferFrom",
      "inputs": [
        {
          "name": "from",
          "type": "address",
          "internalType": "address"
        },
        {
          "name": "to",
          "type": "address",
          "internalType": "address"
        },
        {
          "name": "tokenId",
          "type": "uint256",
          "internalType": "uint256"
        }
      ],
      "outputs": [],
      "stateMutability": "nonpayable"
    },
    {
      "type": "function",
      "name": "transferProduct",
      "inputs": [
        {
          "name": "productId",
          "type": "uint256",
          "internalType": "uint256"
        },
        {
          "name": "to",
          "type": "address",
          "internalType": "address"
        },
        {
          "name": "newLocation",
          "type": "string",
          "internalType": "string"
        },
        {
          "name": "ipfsHash",
          "type": "string",
          "internalType": "string"
        }
      ],
      "outputs": [],
      "stateMutability": "nonpayable"
    },
    {
      "type": "event",
      "name": "Approval",
      "inputs": [
        {
          "name": "owner",
          "type": "address",
          "indexed": true,
          "internalType": "address"
        },
        {
          "name": "approved",
          "type": "address",
          "indexed": true,
          "internalType": "address"
        },
        {
          "name": "tokenId",
          "type": "uint256",
          "indexed": true,
          "internalType": "uint256"
        }
      ],
      "anonymous": false
    },
    {
      "type": "event",
      "name": "ApprovalForAll",
      "inputs": [
        {
          "name": "owner",
          "type": "address",
          "indexed": true,
          "internalType": "address"
        },
        {
          "name": "operator",
          "type": "address",
          "indexed": true,
          "internalType": "address"
        },
        {
          "name": "approved",
          "type": "bool",
          "indexed": false,
          "internalType": "bool"
        }
      ],
      "anonymous": false
    },
    {
      "type": "event",
      "name": "ProductCreated",
      "inputs": [
        {
          "name": "productId",
          "type": "uint256",
          "indexed": true,
          "internalType": "uint256"
        },
        {
          "name": "manufacturer",
          "type": "address",
          "indexed": true,
          "internalType": "address"
        }
      ],
      "anonymous": false
    },
    {
      "type": "event",
      "name": "RoleAdminChanged",
      "inputs": [
        {
          "name": "role",
          "type": "bytes32",
          "indexed": true,
          "internalType": "bytes32"
        },
        {
          "name": "previousAdminRole",
          "type": "bytes32",
          "indexed": true,
          "internalType": "bytes32"
        },
        {
          "name": "newAdminRole",
          "type": "bytes32",
          "indexed": true,
          "internalType": "bytes32"
        }
      ],
      "anonymous": false
    },
    {
      "type": "event",
      "name": "RoleGranted",
      "inputs": [
        {
          "name": "role",
          "type": "bytes32",
          "indexed": true,
          "internalType": "bytes32"
        },
        {
          "name": "account",
          "type": "address",
          "indexed": true,
          "internalType": "address"
        },
        {
          "name": "sender",
          "type": "address",
          "indexed": true,
          "internalType": "address"
        }
      ],
      "anonymous": false
    },
    {
      "type": "event",
      "name": "RoleRevoked",
      "inputs": [
        {
          "name": "role",
          "type": "bytes32",
          "indexed": true,
          "internalType": "bytes32"
        },
        {
          "name": "account",
          "type": "address",
          "indexed": true,
          "internalType": "address"
        },
        {
          "name": "sender",
          "type": "address",
          "indexed": true,
          "internalType": "address"
        }
      ],
      "anonymous": false
    },
    {
      "type": "event",
      "name": "Transfer",
      "inputs": [
        {
          "name": "from",
          "type": "address",
          "indexed": true,
          "internalType": "address"
        },
        {
          "name": "to",
          "type": "address",
          "indexed": true,
          "internalType": "address"
        },
        {
          "name": "tokenId",
          "type": "uint256",
          "indexed": true,
          "internalType": "uint256"
        }
      ],
      "anonymous": false
    },
    {
      "type": "error",
      "name": "AccessControlBadConfirmation",
      "inputs": []
    },
    {
      "type": "error",
      "name": "AccessControlUnauthorizedAccount",
      "inputs": [
        {
          "name": "account",
          "type": "address",
          "internalType": "address"
        },
        {
          "name": "neededRole",
          "type": "bytes32",
          "internalType": "bytes32"
        }
      ]
    },
    {
      "type": "error",
      "name": "ERC721IncorrectOwner",
      "inputs": [
        {
          "name": "sender",
          "type": "address",
          "internalType": "address"
        },
        {
          "name": "tokenId",
          "type": "uint256",
          "internalType": "uint256"
        },
        {
          "name": "owner",
          "type": "address",
          "internalType": "address"
        }
      ]
    },
    {
      "type": "error",
      "name": "ERC721InsufficientApproval",
      "inputs": [
        {
          "name": "operator",
          "type": "address",
          "internalType": "address"
        },
        {
          "name": "tokenId",
          "type": "uint256",
          "internalType": "uint256"
        }
      ]
    },
    {
      "type": "error",
      "name": "ERC721InvalidApprover",
      "inputs": [
        {
          "name": "approver",
          "type": "address",
          "internalType": "address"
        }
      ]
    },
    {
      "type": "error",
      "name": "ERC721InvalidOperator",
      "inputs": [
        {
          "name": "operator",
          "type": "address",
          "internalType": "address"
        }
      ]
    },
    {
      "type": "error",
      "name": "ERC721InvalidOwner",
      "inputs": [
        {
          "name": "owner",
          "type": "address",
          "internalType": "address"
        }
      ]
    },
    {
      "type": "error",
      "name": "ERC721InvalidReceiver",
      "inputs": [
        {
          "name": "receiver",
          "type": "address",
          "internalType": "address"
        }
      ]
    },
    {
      "type": "error",
      "name": "ERC721InvalidSender",
      "inputs": [
        {
          "name": "sender",
          "type": "address",
          "internalType": "address"
        }
      ]
    },
    {
      "type": "error",
      "name": "ERC721NonexistentToken",
      "inputs": [
        {
          "name": "tokenId",
          "type": "uint256",
          "internalType": "uint256"
        }
      ]
    }
  ],
  "bytecode": {
    "object": "0x6001608081815260c06040529060a06020803683375050815161002992600892506020019061020f565b5060408051600180825281830190925290816020015b606081526020019060019003908161003f575050805161006791600991602090910190610272565b5060408051600180825281830190925290816020015b606081526020019060019003908161007d57505080516100a591600a91602090910190610272565b506001600b553480156100b6575f5ffd5b506040518060400160405280601281526020017114dd5c1c1b1e50da185a5b941c9bd91d58dd60721b8152506040518060400160405280600381526020016205343560ec1b815250815f908161010c91906103c4565b50600161011982826103c4565b5050600780546001600160a01b0319163390811790915561015c91507fa49807205ce4d355092ef5a8a18f56e8913cf4a201fbe287825b095693c2177590610162565b5061047e565b5f8281526006602090815260408083206001600160a01b038516845290915281205460ff16610206575f8381526006602090815260408083206001600160a01b03861684529091529020805460ff191660011790556101be3390565b6001600160a01b0316826001600160a01b0316847f2f8788117e7eff1d82e926ec794901d17c78024a50270940304540a733656f0d60405160405180910390a4506001610209565b505f5b92915050565b828054828255905f5260205f20908101928215610262579160200282015b8281111561026257825182546001600160a01b0319166001600160a01b0390911617825560209092019160019091019061022d565b5061026e9291506102c2565b5090565b828054828255905f5260205f209081019282156102b6579160200282015b828111156102b657825182906102a690826103c4565b5091602001919060010190610290565b5061026e9291506102d6565b5b8082111561026e575f81556001016102c3565b8082111561026e575f6102e982826102f2565b506001016102d6565b5080546102fe90610340565b5f825580601f1061030d575050565b601f0160209004905f5260205f209081019061032991906102c2565b50565b634e487b7160e01b5f52604160045260245ffd5b600181811c9082168061035457607f821691505b60208210810361037257634e487b7160e01b5f52602260045260245ffd5b50919050565b601f8211156103bf57805f5260205f20601f840160051c8101602085101561039d5750805b601f840160051c820191505b818110156103bc575f81556001016103a9565b50505b505050565b81516001600160401b038111156103dd576103dd61032c565b6103f1816103eb8454610340565b84610378565b6020601f821160018114610423575f831561040c5750848201515b5f19600385901b1c1916600184901b1784556103bc565b5f84815260208120601f198516915b828110156104525787850151825560209485019460019092019101610432565b508482101561046f57868401515f19600387901b60f8161c191681555b50505050600190811b01905550565b6125f68061048b5f395ff3fe608060405234801561000f575f5ffd5b5060043610610208575f3560e01c806375b238fc1161011f578063b88d4fde116100a9578063e985e9c511610079578063e985e9c5146104d8578063eb23f41e146104eb578063ecdd5250146104fe578063f0bd87cc14610511578063fcda9fa314610538575f5ffd5b8063b88d4fde14610476578063b9db15b414610489578063c87b56dd146104b2578063d547741f146104c5575f5ffd5b806395d89b41116100ef57806395d89b4114610407578063965288b01461040f57806397467f5914610436578063a217fddf1461045c578063a22cb46514610463575f5ffd5b806375b238fc146103a75780638da5cb5b146103ce57806391bd112d146103e157806391d14854146103f4575f5ffd5b806329bba1ba116101a05780634de91a63116101705780634de91a63146103525780634ffd8d801461035b578063522916181461036e5780636352211e1461038157806370a0823114610394575f5ffd5b806329bba1ba146103065780632f2ff15d1461031957806336568abe1461032c57806342842e0e1461033f575f5ffd5b80632115e7bf116101db5780632115e7bf1461028957806323b872dd146102be578063248a9ca3146102d15780632561f718146102f3575f5ffd5b806301ffc9a71461020c57806306fdde0314610234578063081812fc14610249578063095ea7b314610274575b5f5ffd5b61021f61021a366004611ea8565b61054b565b60405190151581526020015b60405180910390f35b61023c61055b565b60405161022b9190611ef1565b61025c610257366004611f03565b6105ea565b6040516001600160a01b03909116815260200161022b565b610287610282366004611f35565b610611565b005b6102b07f2a5f906c256a5d799494fcd066e1f6c077689de1cdb65052a1624de4bace99bf81565b60405190815260200161022b565b6102876102cc366004611f5d565b610620565b6102b06102df366004611f03565b5f9081526006602052604090206001015490565b610287610301366004611f97565b6106ae565b61023c610314366004611f03565b610702565b610287610327366004611fb0565b6107a8565b61028761033a366004611fb0565b6107cc565b61028761034d366004611f5d565b610804565b6102b0600b5481565b610287610369366004612083565b61081e565b61025c61037c366004611f03565b610c6e565b61025c61038f366004611f03565b610c96565b6102b06103a2366004611f97565b610ca0565b6102b07fa49807205ce4d355092ef5a8a18f56e8913cf4a201fbe287825b095693c2177581565b60075461025c906001600160a01b031681565b6102876103ef366004611f97565b610ce5565b61021f610402366004611fb0565b610d39565b61023c610d63565b6102b07feefb95e842a3287179d933b4460be539a1d5af11aa8b325bb45c5c8dc92de4ed81565b610449610444366004611f03565b610d72565b60405161022b97969594939291906120fa565b6102b05f81565b610287610471366004612147565b610e3f565b610287610484366004612180565b610e4a565b61049c610497366004611f03565b610e62565b60405161022b9a99989796959493929190612245565b61023c6104c0366004611f03565b6111eb565b6102876104d3366004611fb0565b61125c565b61021f6104e636600461230a565b611280565b6102876104f9366004612332565b6112ad565b61023c61050c366004611f03565b6113f4565b6102b07ffbd454f36a7e1a388bd6fc3ab10d434aa4578f811acbbcf33afb1c697486313c81565b610287610546366004611f97565b611403565b5f61055582611457565b92915050565b60605f805461056990612398565b80601f016020809104026020016040519081016040528092919081815260200182805461059590612398565b80156105e05780601f106105b7576101008083540402835291602001916105e0565b820191905f5260205f20905b8154815290600101906020018083116105c357829003601f168201915b5050505050905090565b5f6105f48261147b565b505f828152600460205260409020546001600160a01b0316610555565b61061c8282336114b3565b5050565b6001600160a01b03821661064e57604051633250574960e11b81525f60048201526024015b60405180910390fd5b5f61065a8383336114c0565b9050836001600160a01b0316816001600160a01b0316146106a8576040516364283d7b60e01b81526001600160a01b0380861660048301526024820184905282166044820152606401610645565b50505050565b6007546001600160a01b031633146106d85760405162461bcd60e51b8152600401610645906123d0565b61061c7f2a5f906c256a5d799494fcd066e1f6c077689de1cdb65052a1624de4bace99bf826115b2565b60098181548110610711575f80fd5b905f5260205f20015f91509050805461072990612398565b80601f016020809104026020016040519081016040528092919081815260200182805461075590612398565b80156107a05780601f10610777576101008083540402835291602001916107a0565b820191905f5260205f20905b81548152906001019060200180831161078357829003601f168201915b505050505081565b5f828152600660205260409020600101546107c281611643565b6106a883836115b2565b6001600160a01b03811633146107f55760405163334bd91960e11b815260040160405180910390fd5b6107ff8282611650565b505050565b6107ff83838360405180602001604052805f815250610e4a565b7feefb95e842a3287179d933b4460be539a1d5af11aa8b325bb45c5c8dc92de4ed61084881611643565b600b80549081905f61085983612407565b919050555061086833826116bb565b3360085f8154811061087c5761087c61242b565b905f5260205f20015f6101000a8154816001600160a01b0302191690836001600160a01b031602179055506040518060400160405280600c81526020016b13585b9d599858dd1d5c995960a21b81525060095f815481106108df576108df61242b565b905f5260205f200190816108f39190612483565b5082600a5f815481106109085761090861242b565b905f5260205f2001908161091c9190612483565b50604051806101400160405280828152602001878152602001868152602001858152602001336001600160a01b0316815260200160088054806020026020016040519081016040528092919081815260200182805480156109a457602002820191905f5260205f20905b81546001600160a01b03168152600190910190602001808311610986575b505050505081526020016009805480602002602001604051908101604052809291908181526020015f905b82821015610a77578382905f5260205f200180546109ec90612398565b80601f0160208091040260200160405190810160405280929190818152602001828054610a1890612398565b8015610a635780601f10610a3a57610100808354040283529160200191610a63565b820191905f5260205f20905b815481529060010190602001808311610a4657829003601f168201915b5050505050815260200190600101906109cf565b505050508152602001428152602001600115158152602001600a805480602002602001604051908101604052809291908181526020015f905b82821015610b58578382905f5260205f20018054610acd90612398565b80601f0160208091040260200160405190810160405280929190818152602001828054610af990612398565b8015610b445780601f10610b1b57610100808354040283529160200191610b44565b820191905f5260205f20905b815481529060010190602001808311610b2757829003601f168201915b505050505081526020019060010190610ab0565b5050509152505f828152600c6020908152604090912082518155908201516001820190610b859082612483565b50604082015160028201556060820151600382015560808201516004820180546001600160a01b0319166001600160a01b0390921691909117905560a08201518051610bdb916005840191602090910190611d79565b5060c08201518051610bf7916006840191602090910190611ddc565b5060e0820151600782015561010082015160088201805460ff19169115159190911790556101208201518051610c37916009840191602090910190611ddc565b505060405133915082907fe8bb4e90e950f7b76a8c4e472b3b5e01d41c478f9eeaea36b4ba991f51133f91905f90a3505050505050565b60088181548110610c7d575f80fd5b5f918252602090912001546001600160a01b0316905081565b5f6105558261147b565b5f6001600160a01b038216610cca576040516322718ad960e21b81525f6004820152602401610645565b506001600160a01b03165f9081526003602052604090205490565b6007546001600160a01b03163314610d0f5760405162461bcd60e51b8152600401610645906123d0565b61061c7ffbd454f36a7e1a388bd6fc3ab10d434aa4578f811acbbcf33afb1c697486313c826115b2565b5f9182526006602090815260408084206001600160a01b0393909316845291905290205460ff1690565b60606001805461056990612398565b600c6020525f908152604090208054600182018054919291610d9390612398565b80601f0160208091040260200160405190810160405280929190818152602001828054610dbf90612398565b8015610e0a5780601f10610de157610100808354040283529160200191610e0a565b820191905f5260205f20905b815481529060010190602001808311610ded57829003601f168201915b5050506002840154600385015460048601546007870154600890970154959692959194506001600160a01b0316925060ff1687565b61061c3383836116d4565b610e55848484610620565b6106a83385858585611772565b5f60605f5f5f6060805f5f60605f600c5f8d81526020019081526020015f20604051806101400160405290815f8201548152602001600182018054610ea690612398565b80601f0160208091040260200160405190810160405280929190818152602001828054610ed290612398565b8015610f1d5780601f10610ef457610100808354040283529160200191610f1d565b820191905f5260205f20905b815481529060010190602001808311610f0057829003601f168201915b505050505081526020016002820154815260200160038201548152602001600482015f9054906101000a90046001600160a01b03166001600160a01b03166001600160a01b0316815260200160058201805480602002602001604051908101604052809291908181526020018280548015610fbf57602002820191905f5260205f20905b81546001600160a01b03168152600190910190602001808311610fa1575b5050505050815260200160068201805480602002602001604051908101604052809291908181526020015f905b82821015611094578382905f5260205f2001805461100990612398565b80601f016020809104026020016040519081016040528092919081815260200182805461103590612398565b80156110805780601f1061105757610100808354040283529160200191611080565b820191905f5260205f20905b81548152906001019060200180831161106357829003601f168201915b505050505081526020019060010190610fec565b50505050815260200160078201548152602001600882015f9054906101000a900460ff1615151515815260200160098201805480602002602001604051908101604052809291908181526020015f905b8282101561118c578382905f5260205f2001805461110190612398565b80601f016020809104026020016040519081016040528092919081815260200182805461112d90612398565b80156111785780601f1061114f57610100808354040283529160200191611178565b820191905f5260205f20905b81548152906001019060200180831161115b57829003601f168201915b5050505050815260200190600101906110e4565b50505050815250509050805f015181602001518260400151836060015184608001518560a001518660c001518760e001518861010001518961012001519a509a509a509a509a509a509a509a509a509a50509193959799509193959799565b60606111f68261147b565b505f61120c60408051602081019091525f815290565b90505f81511161122a5760405180602001604052805f815250611255565b8061123484611899565b604051602001611245929190612555565b6040516020818303038152906040525b9392505050565b5f8281526006602052604090206001015461127681611643565b6106a88383611650565b6001600160a01b039182165f90815260056020908152604080832093909416825291909152205460ff1690565b5f848152600c60205260409020600881015460ff166113065760405162461bcd60e51b815260206004820152601560248201527450726f64756374206973206e6f742061637469766560581b6044820152606401610645565b60048101546001600160a01b031633146113625760405162461bcd60e51b815260206004820152601f60248201527f4f6e6c792063757272656e74206f776e65722063616e207472616e73666572006044820152606401610645565b6004810180546001600160a01b0386166001600160a01b03199182168117909255600583018054600181810183555f928352602080842090920180549094169094179092556006840180549384018155815220016113c08482612483565b506009810180546001810182555f9182526020909120016113e18382612483565b506113ed338587611929565b5050505050565b600a8181548110610711575f80fd5b6007546001600160a01b0316331461142d5760405162461bcd60e51b8152600401610645906123d0565b61061c7feefb95e842a3287179d933b4460be539a1d5af11aa8b325bb45c5c8dc92de4ed826115b2565b5f6001600160e01b03198216637965db0b60e01b14806105555750610555826119d6565b5f818152600260205260408120546001600160a01b03168061055557604051637e27328960e01b815260048101849052602401610645565b6107ff8383836001611a25565b5f828152600260205260408120546001600160a01b03908116908316156114ec576114ec818486611b29565b6001600160a01b03811615611526576115075f855f5f611a25565b6001600160a01b0381165f90815260036020526040902080545f190190555b6001600160a01b03851615611554576001600160a01b0385165f908152600360205260409020805460010190555b5f8481526002602052604080822080546001600160a01b0319166001600160a01b0389811691821790925591518793918516917fddf252ad1be2c89b69c2b068fc378daa952ba7f163c4a11628f55a4df523b3ef91a4949350505050565b5f6115bd8383610d39565b61163c575f8381526006602090815260408083206001600160a01b03861684529091529020805460ff191660011790556115f43390565b6001600160a01b0316826001600160a01b0316847f2f8788117e7eff1d82e926ec794901d17c78024a50270940304540a733656f0d60405160405180910390a4506001610555565b505f610555565b61164d8133611b8d565b50565b5f61165b8383610d39565b1561163c575f8381526006602090815260408083206001600160a01b0386168085529252808320805460ff1916905551339286917ff6391f5c32d9c69d2a47ea670b442974b53935d1edc7fd64eb21e047a839171b9190a4506001610555565b61061c828260405180602001604052805f815250611bc6565b6001600160a01b03821661170657604051630b61174360e31b81526001600160a01b0383166004820152602401610645565b6001600160a01b038381165f81815260056020908152604080832094871680845294825291829020805460ff191686151590811790915591519182527f17307eab39ab6107e8899845ad3d59bd9653f200f220920489ca2b5937696c31910160405180910390a3505050565b6001600160a01b0383163b156113ed57604051630a85bd0160e11b81526001600160a01b0384169063150b7a02906117b4908890889087908790600401612569565b6020604051808303815f875af19250505080156117ee575060408051601f3d908101601f191682019092526117eb918101906125a5565b60015b611855573d80801561181b576040519150601f19603f3d011682016040523d82523d5f602084013e611820565b606091505b5080515f0361184d57604051633250574960e11b81526001600160a01b0385166004820152602401610645565b805181602001fd5b6001600160e01b03198116630a85bd0160e11b1461189157604051633250574960e11b81526001600160a01b0385166004820152602401610645565b505050505050565b60605f6118a583611bdd565b60010190505f8167ffffffffffffffff8111156118c4576118c4611fda565b6040519080825280601f01601f1916602001820160405280156118ee576020820181803683370190505b5090508181016020015b5f19016f181899199a1a9b1b9c1cb0b131b232b360811b600a86061a8153600a85049450846118f857509392505050565b6001600160a01b03821661195257604051633250574960e11b81525f6004820152602401610645565b5f61195e83835f6114c0565b90506001600160a01b03811661198a57604051637e27328960e01b815260048101839052602401610645565b836001600160a01b0316816001600160a01b0316146106a8576040516364283d7b60e01b81526001600160a01b0380861660048301526024820184905282166044820152606401610645565b5f6001600160e01b031982166380ac58cd60e01b1480611a0657506001600160e01b03198216635b5e139f60e01b145b8061055557506301ffc9a760e01b6001600160e01b0319831614610555565b8080611a3957506001600160a01b03821615155b15611afa575f611a488461147b565b90506001600160a01b03831615801590611a745750826001600160a01b0316816001600160a01b031614155b8015611a875750611a858184611280565b155b15611ab05760405163a9fbf51f60e01b81526001600160a01b0384166004820152602401610645565b8115611af85783856001600160a01b0316826001600160a01b03167f8c5be1e5ebec7d5bd14f71427d1e84f3dd0314c0f7b2291e5b200ac8c7c3b92560405160405180910390a45b505b50505f90815260046020526040902080546001600160a01b0319166001600160a01b0392909216919091179055565b611b34838383611cb4565b6107ff576001600160a01b038316611b6257604051637e27328960e01b815260048101829052602401610645565b60405163177e802f60e01b81526001600160a01b038316600482015260248101829052604401610645565b611b978282610d39565b61061c5760405163e2517d3f60e01b81526001600160a01b038216600482015260248101839052604401610645565b611bd08383611d18565b6107ff335f858585611772565b5f8072184f03e93ff9f4daa797ed6e38ed64bf6a1f0160401b8310611c1b5772184f03e93ff9f4daa797ed6e38ed64bf6a1f0160401b830492506040015b6d04ee2d6d415b85acef81000000008310611c47576d04ee2d6d415b85acef8100000000830492506020015b662386f26fc100008310611c6557662386f26fc10000830492506010015b6305f5e1008310611c7d576305f5e100830492506008015b6127108310611c9157612710830492506004015b60648310611ca3576064830492506002015b600a83106105555760010192915050565b5f6001600160a01b03831615801590611d105750826001600160a01b0316846001600160a01b03161480611ced5750611ced8484611280565b80611d1057505f828152600460205260409020546001600160a01b038481169116145b949350505050565b6001600160a01b038216611d4157604051633250574960e11b81525f6004820152602401610645565b5f611d4d83835f6114c0565b90506001600160a01b038116156107ff576040516339e3563760e11b81525f6004820152602401610645565b828054828255905f5260205f20908101928215611dcc579160200282015b82811115611dcc57825182546001600160a01b0319166001600160a01b03909116178255602090920191600190910190611d97565b50611dd8929150611e2c565b5090565b828054828255905f5260205f20908101928215611e20579160200282015b82811115611e205782518290611e109082612483565b5091602001919060010190611dfa565b50611dd8929150611e40565b5b80821115611dd8575f8155600101611e2d565b80821115611dd8575f611e538282611e5c565b50600101611e40565b508054611e6890612398565b5f825580601f10611e77575050565b601f0160209004905f5260205f209081019061164d9190611e2c565b6001600160e01b03198116811461164d575f5ffd5b5f60208284031215611eb8575f5ffd5b813561125581611e93565b5f81518084528060208401602086015e5f602082860101526020601f19601f83011685010191505092915050565b602081525f6112556020830184611ec3565b5f60208284031215611f13575f5ffd5b5035919050565b80356001600160a01b0381168114611f30575f5ffd5b919050565b5f5f60408385031215611f46575f5ffd5b611f4f83611f1a565b946020939093013593505050565b5f5f5f60608486031215611f6f575f5ffd5b611f7884611f1a565b9250611f8660208501611f1a565b929592945050506040919091013590565b5f60208284031215611fa7575f5ffd5b61125582611f1a565b5f5f60408385031215611fc1575f5ffd5b82359150611fd160208401611f1a565b90509250929050565b634e487b7160e01b5f52604160045260245ffd5b5f5f67ffffffffffffffff84111561200857612008611fda565b50604051601f19601f85018116603f0116810181811067ffffffffffffffff8211171561203757612037611fda565b60405283815290508082840185101561204e575f5ffd5b838360208301375f60208583010152509392505050565b5f82601f830112612074575f5ffd5b61125583833560208501611fee565b5f5f5f5f60808587031215612096575f5ffd5b843567ffffffffffffffff8111156120ac575f5ffd5b6120b887828801612065565b9450506020850135925060408501359150606085013567ffffffffffffffff8111156120e2575f5ffd5b6120ee87828801612065565b91505092959194509250565b87815260e060208201525f61211260e0830189611ec3565b60408301979097525060608101949094526001600160a01b0392909216608084015260a0830152151560c09091015292915050565b5f5f60408385031215612158575f5ffd5b61216183611f1a565b915060208301358015158114612175575f5ffd5b809150509250929050565b5f5f5f5f60808587031215612193575f5ffd5b61219c85611f1a565b93506121aa60208601611f1a565b925060408501359150606085013567ffffffffffffffff8111156121cc575f5ffd5b8501601f810187136121dc575f5ffd5b6120ee87823560208401611fee565b5f82825180855260208501945060208160051b830101602085015f5b8381101561223957601f19858403018852612223838351611ec3565b6020988901989093509190910190600101612207565b50909695505050505050565b8a815261014060208201525f61225f61014083018c611ec3565b604083018b9052606083018a90526001600160a01b038916608084015282810360a084015287518082526020808a019201905f5b818110156122ba5783516001600160a01b0316835260209384019390920191600101612293565b505083810360c08501526122ce81896121eb565b9150508560e08401526122e661010084018615159052565b8281036101208401526122f981856121eb565b9d9c50505050505050505050505050565b5f5f6040838503121561231b575f5ffd5b61232483611f1a565b9150611fd160208401611f1a565b5f5f5f5f60808587031215612345575f5ffd5b8435935061235560208601611f1a565b9250604085013567ffffffffffffffff811115612370575f5ffd5b61237c87828801612065565b925050606085013567ffffffffffffffff8111156120e2575f5ffd5b600181811c908216806123ac57607f821691505b6020821081036123ca57634e487b7160e01b5f52602260045260245ffd5b50919050565b6020808252601b908201527f4f6e6c79206f776e65722063616e2061737369676e20726f6c65730000000000604082015260600190565b5f6001820161242457634e487b7160e01b5f52601160045260245ffd5b5060010190565b634e487b7160e01b5f52603260045260245ffd5b601f8211156107ff57805f5260205f20601f840160051c810160208510156124645750805b601f840160051c820191505b818110156113ed575f8155600101612470565b815167ffffffffffffffff81111561249d5761249d611fda565b6124b1816124ab8454612398565b8461243f565b6020601f8211600181146124e3575f83156124cc5750848201515b5f19600385901b1c1916600184901b1784556113ed565b5f84815260208120601f198516915b8281101561251257878501518255602094850194600190920191016124f2565b508482101561252f57868401515f19600387901b60f8161c191681555b50505050600190811b01905550565b5f81518060208401855e5f93019283525090919050565b5f611d10612563838661253e565b8461253e565b6001600160a01b03858116825284166020820152604081018390526080606082018190525f9061259b90830184611ec3565b9695505050505050565b5f602082840312156125b5575f5ffd5b815161125581611e9356fea26469706673582212206d46b2d00c025711d5b8d8eb6fedd833301fb81ccdf0dc983832e46820e2a5b264736f6c634300081c0033",
    "linkReferences": {}
  },
  "methodIdentifiers": {
    "ADMIN_ROLE()": "75b238fc",
    "DEFAULT_ADMIN_ROLE()": "a217fddf",
    "DISTRIBUTOR_ROLE()": "f0bd87cc",
    "MANUFACTURER_ROLE()": "965288b0",
    "RETAILER_ROLE()": "2115e7bf",
    "approve(address,uint256)": "095ea7b3",
    "assignDistributer(address)": "91bd112d",
    "assignManufacturer(address)": "fcda9fa3",
    "assignRetailer(address)": "2561f718",
    "balanceOf(address)": "70a08231",
    "createProduct(string,uint256,uint256,string)": "4ffd8d80",
    "getApproved(uint256)": "081812fc",
    "getProduct(uint256)": "b9db15b4",
    "getRoleAdmin(bytes32)": "248a9ca3",
    "grantRole(bytes32,address)": "2f2ff15d",
    "hasRole(bytes32,address)": "91d14854",
    "initialIpfsHash(uint256)": "ecdd5250",
    "initialLocation(uint256)": "29bba1ba",
    "initialOwnership(uint256)": "52291618",
    "isApprovedForAll(address,address)": "e985e9c5",
    "name()": "06fdde03",
    "nextProductId()": "4de91a63",
    "owner()": "8da5cb5b",
    "ownerOf(uint256)": "6352211e",
    "productIdToProduct(uint256)": "97467f59",
    "renounceRole(bytes32,address)": "36568abe",
    "revokeRole(bytes32,address)": "d547741f",
    "safeTransferFrom(address,address,uint256)": "42842e0e",
    "safeTransferFrom(address,address,uint256,bytes)": "b88d4fde",
    "setApprovalForAll(address,bool)": "a22cb465",
    "supportsInterface(bytes4)": "01ffc9a7",
    "symbol()": "95d89b41",
    "tokenURI(uint256)": "c87b56dd",
    "transferFrom(address,address,uint256)": "23b872dd",
    "transferProduct(uint256,address,string,string)": "eb23f41e"
  },
  "id": 34
}